{
  "_format": "hh-sol-artifact-1",
  "contractName": "Transactions",
  "sourceName": "contracts/Transactions.sol",
  "abi": [
    {
      "anonymous": false,
      "inputs": [
        {
          "indexed": false,
          "internalType": "address",
          "name": "from",
          "type": "address"
        },
        {
          "indexed": false,
          "internalType": "address",
          "name": "receiver",
          "type": "address"
        },
        {
          "indexed": false,
          "internalType": "uint256",
          "name": "amount",
          "type": "uint256"
        },
        {
          "indexed": false,
          "internalType": "string",
          "name": "message",
          "type": "string"
        },
        {
          "indexed": false,
          "internalType": "string",
          "name": "symptom2",
          "type": "string"
        },
        {
          "indexed": false,
          "internalType": "string",
          "name": "symptom3",
          "type": "string"
        },
        {
          "indexed": false,
          "internalType": "string",
          "name": "symptom4",
          "type": "string"
        },
        {
          "indexed": false,
          "internalType": "string",
          "name": "symptom5",
          "type": "string"
        },
        {
          "indexed": false,
          "internalType": "string",
          "name": "symptom6",
          "type": "string"
        },
        {
          "indexed": false,
          "internalType": "uint256",
          "name": "timestamp",
          "type": "uint256"
        },
        {
          "indexed": false,
          "internalType": "string",
          "name": "keyword",
          "type": "string"
        }
      ],
      "name": "Transfer",
      "type": "event"
    },
    {
      "inputs": [
        {
          "internalType": "address payable",
          "name": "receiver",
          "type": "address"
        },
        {
          "internalType": "uint256",
          "name": "amount",
          "type": "uint256"
        },
        {
          "internalType": "string",
          "name": "message",
          "type": "string"
        },
        {
          "internalType": "string",
          "name": "symptom2",
          "type": "string"
        },
        {
          "internalType": "string",
          "name": "symptom3",
          "type": "string"
        },
        {
          "internalType": "string",
          "name": "symptom4",
          "type": "string"
        },
        {
          "internalType": "string",
          "name": "symptom5",
          "type": "string"
        },
        {
          "internalType": "string",
          "name": "symptom6",
          "type": "string"
        },
        {
          "internalType": "string",
          "name": "keyword",
          "type": "string"
        }
      ],
      "name": "addToBlockchain",
      "outputs": [],
      "stateMutability": "nonpayable",
      "type": "function"
    },
    {
      "inputs": [],
      "name": "getAllTransactions",
      "outputs": [
        {
          "components": [
            {
              "internalType": "address",
              "name": "sender",
              "type": "address"
            },
            {
              "internalType": "address",
              "name": "receiver",
              "type": "address"
            },
            {
              "internalType": "uint256",
              "name": "amount",
              "type": "uint256"
            },
            {
              "internalType": "string",
              "name": "message",
              "type": "string"
            },
            {
              "internalType": "string",
              "name": "symptom2",
              "type": "string"
            },
            {
              "internalType": "string",
              "name": "symptom3",
              "type": "string"
            },
            {
              "internalType": "string",
              "name": "symptom4",
              "type": "string"
            },
            {
              "internalType": "string",
              "name": "symptom5",
              "type": "string"
            },
            {
              "internalType": "string",
              "name": "symptom6",
              "type": "string"
            },
            {
              "internalType": "uint256",
              "name": "timestamp",
              "type": "uint256"
            },
            {
              "internalType": "string",
              "name": "keyword",
              "type": "string"
            }
          ],
          "internalType": "struct Transactions.TransferStruct[]",
          "name": "",
          "type": "tuple[]"
        }
      ],
      "stateMutability": "view",
      "type": "function"
    },
    {
      "inputs": [],
      "name": "getTransactionCount",
      "outputs": [
        {
          "internalType": "uint256",
          "name": "",
          "type": "uint256"
        }
      ],
      "stateMutability": "view",
      "type": "function"
    }
  ],
  "bytecode": "0x608060405234801561001057600080fd5b5061117b806100206000396000f3fe608060405234801561001057600080fd5b50600436106100415760003560e01c80631a00790f1461004657806327506f53146100625780632e7700f014610080575b600080fd5b610060600480360381019061005b919061097e565b61009e565b005b61006a610322565b6040516100779190610e27565b60405180910390f35b610088610840565b6040516100959190610e49565b60405180910390f35b60016000808282546100b09190610f2b565b9250508190555060016040518061016001604052803373ffffffffffffffffffffffffffffffffffffffff1681526020018b73ffffffffffffffffffffffffffffffffffffffff1681526020018a81526020018981526020018881526020018781526020018681526020018581526020018481526020014281526020018381525090806001815401808255809150506001900390600052602060002090600b020160009091909190915060008201518160000160006101000a81548173ffffffffffffffffffffffffffffffffffffffff021916908373ffffffffffffffffffffffffffffffffffffffff16021790555060208201518160010160006101000a81548173ffffffffffffffffffffffffffffffffffffffff021916908373ffffffffffffffffffffffffffffffffffffffff16021790555060408201518160020155606082015181600301908051906020019061020e929190610849565b50608082015181600401908051906020019061022b929190610849565b5060a0820151816005019080519060200190610248929190610849565b5060c0820151816006019080519060200190610265929190610849565b5060e0820151816007019080519060200190610282929190610849565b506101008201518160080190805190602001906102a0929190610849565b50610120820151816009015561014082015181600a0190805190602001906102c9929190610849565b5050507fa4f7ff81bc04e5df7ed3da78b934867686b0aa990fa857fd27e9159986b9cf63338a8a8a8a8a8a8a8a428b60405161030f9b9a99989796959493929190610d4b565b60405180910390a1505050505050505050565b60606001805480602002602001604051908101604052809291908181526020016000905b8282101561083757838290600052602060002090600b0201604051806101600160405290816000820160009054906101000a900473ffffffffffffffffffffffffffffffffffffffff1673ffffffffffffffffffffffffffffffffffffffff1673ffffffffffffffffffffffffffffffffffffffff1681526020016001820160009054906101000a900473ffffffffffffffffffffffffffffffffffffffff1673ffffffffffffffffffffffffffffffffffffffff1673ffffffffffffffffffffffffffffffffffffffff1681526020016002820154815260200160038201805461043090611047565b80601f016020809104026020016040519081016040528092919081815260200182805461045c90611047565b80156104a95780601f1061047e576101008083540402835291602001916104a9565b820191906000526020600020905b81548152906001019060200180831161048c57829003601f168201915b505050505081526020016004820180546104c290611047565b80601f01602080910402602001604051908101604052809291908181526020018280546104ee90611047565b801561053b5780601f106105105761010080835404028352916020019161053b565b820191906000526020600020905b81548152906001019060200180831161051e57829003601f168201915b5050505050815260200160058201805461055490611047565b80601f016020809104026020016040519081016040528092919081815260200182805461058090611047565b80156105cd5780601f106105a2576101008083540402835291602001916105cd565b820191906000526020600020905b8154815290600101906020018083116105b057829003601f168201915b505050505081526020016006820180546105e690611047565b80601f016020809104026020016040519081016040528092919081815260200182805461061290611047565b801561065f5780601f106106345761010080835404028352916020019161065f565b820191906000526020600020905b81548152906001019060200180831161064257829003601f168201915b5050505050815260200160078201805461067890611047565b80601f01602080910402602001604051908101604052809291908181526020018280546106a490611047565b80156106f15780601f106106c6576101008083540402835291602001916106f1565b820191906000526020600020905b8154815290600101906020018083116106d457829003601f168201915b5050505050815260200160088201805461070a90611047565b80601f016020809104026020016040519081016040528092919081815260200182805461073690611047565b80156107835780601f1061075857610100808354040283529160200191610783565b820191906000526020600020905b81548152906001019060200180831161076657829003601f168201915b5050505050815260200160098201548152602001600a820180546107a690611047565b80601f01602080910402602001604051908101604052809291908181526020018280546107d290611047565b801561081f5780601f106107f45761010080835404028352916020019161081f565b820191906000526020600020905b81548152906001019060200180831161080257829003601f168201915b50505050508152505081526020019060010190610346565b50505050905090565b60008054905090565b82805461085590611047565b90600052602060002090601f01602090048101928261087757600085556108be565b82601f1061089057805160ff19168380011785556108be565b828001600101855582156108be579182015b828111156108bd5782518255916020019190600101906108a2565b5b5090506108cb91906108cf565b5090565b5b808211156108e85760008160009055506001016108d0565b5090565b60006108ff6108fa84610e95565b610e64565b90508281526020810184848401111561091757600080fd5b610922848285611005565b509392505050565b60008135905061093981611117565b92915050565b600082601f83011261095057600080fd5b81356109608482602086016108ec565b91505092915050565b6000813590506109788161112e565b92915050565b60008060008060008060008060006101208a8c03121561099d57600080fd5b60006109ab8c828d0161092a565b99505060206109bc8c828d01610969565b98505060408a013567ffffffffffffffff8111156109d957600080fd5b6109e58c828d0161093f565b97505060608a013567ffffffffffffffff811115610a0257600080fd5b610a0e8c828d0161093f565b96505060808a013567ffffffffffffffff811115610a2b57600080fd5b610a378c828d0161093f565b95505060a08a013567ffffffffffffffff811115610a5457600080fd5b610a608c828d0161093f565b94505060c08a013567ffffffffffffffff811115610a7d57600080fd5b610a898c828d0161093f565b93505060e08a013567ffffffffffffffff811115610aa657600080fd5b610ab28c828d0161093f565b9250506101008a013567ffffffffffffffff811115610ad057600080fd5b610adc8c828d0161093f565b9150509295985092959850929598565b6000610af88383610c14565b905092915050565b610b0981610fcf565b82525050565b610b1881610f81565b82525050565b610b2781610f81565b82525050565b6000610b3882610ed5565b610b428185610ef8565b935083602082028501610b5485610ec5565b8060005b85811015610b905784840389528151610b718582610aec565b9450610b7c83610eeb565b925060208a01995050600181019050610b58565b50829750879550505050505092915050565b6000610bad82610ee0565b610bb78185610f09565b9350610bc7818560208601611014565b610bd081611106565b840191505092915050565b6000610be682610ee0565b610bf08185610f1a565b9350610c00818560208601611014565b610c0981611106565b840191505092915050565b600061016083016000830151610c2d6000860182610b0f565b506020830151610c406020860182610b0f565b506040830151610c536040860182610d2d565b5060608301518482036060860152610c6b8282610ba2565b91505060808301518482036080860152610c858282610ba2565b91505060a083015184820360a0860152610c9f8282610ba2565b91505060c083015184820360c0860152610cb98282610ba2565b91505060e083015184820360e0860152610cd38282610ba2565b915050610100830151848203610100860152610cef8282610ba2565b915050610120830151610d06610120860182610d2d565b50610140830151848203610140860152610d208282610ba2565b9150508091505092915050565b610d3681610fc5565b82525050565b610d4581610fc5565b82525050565b600061016082019050610d61600083018e610b1e565b610d6e602083018d610b00565b610d7b604083018c610d3c565b8181036060830152610d8d818b610bdb565b90508181036080830152610da1818a610bdb565b905081810360a0830152610db58189610bdb565b905081810360c0830152610dc98188610bdb565b905081810360e0830152610ddd8187610bdb565b9050818103610100830152610df28186610bdb565b9050610e02610120830185610d3c565b818103610140830152610e158184610bdb565b90509c9b505050505050505050505050565b60006020820190508181036000830152610e418184610b2d565b905092915050565b6000602082019050610e5e6000830184610d3c565b92915050565b6000604051905081810181811067ffffffffffffffff82111715610e8b57610e8a6110d7565b5b8060405250919050565b600067ffffffffffffffff821115610eb057610eaf6110d7565b5b601f19601f8301169050602081019050919050565b6000819050602082019050919050565b600081519050919050565b600081519050919050565b6000602082019050919050565b600082825260208201905092915050565b600082825260208201905092915050565b600082825260208201905092915050565b6000610f3682610fc5565b9150610f4183610fc5565b9250827fffffffffffffffffffffffffffffffffffffffffffffffffffffffffffffffff03821115610f7657610f75611079565b5b828201905092915050565b6000610f8c82610fa5565b9050919050565b6000610f9e82610fa5565b9050919050565b600073ffffffffffffffffffffffffffffffffffffffff82169050919050565b6000819050919050565b6000610fda82610fe1565b9050919050565b6000610fec82610ff3565b9050919050565b6000610ffe82610fa5565b9050919050565b82818337600083830152505050565b60005b83811015611032578082015181840152602081019050611017565b83811115611041576000848401525b50505050565b6000600282049050600182168061105f57607f821691505b60208210811415611073576110726110a8565b5b50919050565b7f4e487b7100000000000000000000000000000000000000000000000000000000600052601160045260246000fd5b7f4e487b7100000000000000000000000000000000000000000000000000000000600052602260045260246000fd5b7f4e487b7100000000000000000000000000000000000000000000000000000000600052604160045260246000fd5b6000601f19601f8301169050919050565b61112081610f93565b811461112b57600080fd5b50565b61113781610fc5565b811461114257600080fd5b5056fea26469706673582212203dd84b403ee43b54ef97811a4a18ba7a328ae8553a43094f94b6cff3b1134c4264736f6c63430008000033",
  "linkReferences": {},
  "deployedLinkReferences": {}
}